:020000040000FA
:20000000280400203D010000450100004701000000000000000000000000000000000000C8
:200020000000000000000000000000005601000000000000000000005801000005330000D8
:200040005C0100005C0100005C0100005C0100005C0100005C0100005C0100005C010000B8
:200060005C0100005C0100005C0100005C0100005C0100005C0100005C0100005C01000098
:200080005C0100005C0100005C0100005C0100005C0100005C0100005C0100005C01000078
:2000A0005C0100005C0100005C0100005C0100005C0100005C0100005C0100005C01000058
:2000C0005C010000B13500005C0100005C010000013A00005C0100005C0100005C010000D1
:2000E0005C0100005C0100005C0100005C0100005C0100005C0100005C0100005C01000018
:20010000A10900005C0100005C0100005C0100005C0100005C0100005C0100005C010000AA
:200120005C0100005C0100000348854600F01EFA00480047C5420000280400200C488047EA
:200140000C480047FEE77046EFF30881EFF30982094B98470047FEE7FEE7FEE7FEE7C0467D
:20016000ABBE064B744698472047C0467046F047A5330000290100001D3000005D300000F6
:20018000F0B51FB40646002082B005464024019100901BE0019922460F46304600F02DFA99
:2001A000049A059B801A994110D310461946224600F013FA361A8F4101972246012000212E
:2001C000009F00F00AFA38184D4100902046641E0028DFDC019B00982946324607B0F0BDD4
:2001E000F0B507460846584087B0C00F049048000E46590040084908BC1A884105D238460B
:2002000031461E4617460B4602465800400810434CD0300D039040055900400D490D059058
:20022000401A0290402872DA18030121000B09050843019004980092002805D00199524293
:200240000020884100920190029840210A1A0199009800F0C2F905460C466B4607CB00F086
:20026000DDF9C0197141039A0E0D0023D71756401A467A40164344D0049A002A2DD0029AD6
:20028000012A039A15DC1205C01A914101263605001C7141D20F059ED20700930192029697
:2002A0002A46234600F0DAF907B0F0BD38463146FAE71605224A0F46B218C01AB7410121CE
:2002C0000905001C4F4100187F41114618187941E20F10436D19644113E0E2076D08154333
:2002E0006408C2071443039A01261205C01A91413605001C7141CE07400830434908C01829
:2003000051412A46234600F09CF9CDE7FFE7049801224000C117121A00238B41049831464E
:20032000C417381AA141EEE730B40124E407634030BC55E730B40124E407614030BC4FE763
:200340000000E0FFF0B51FB488B00B990998002448400999C00F490049080991C0070B990D
:200360000090490049080B9109990898A64608431CD00B990A98084318D0099801244000D3
:20038000420D4800410D099824050003000B204309900B980003000B20430B9050181C4928
:2003A0004018002201901446104605E0002001460DB0F0BD032801DA034600E003239C4695
:2003C000C11A0AAE0AE05F0008ADED5B4F00F75B7D430027AA187C41491C5B1E6145F2DDEA
:2003E000410004AB5A522104120C0A43240C401C0828DFDB019802900099704601910090BF
:20040000059B049A0799069800F028F9D0E700000DFCFFFFF0B50C465C4085B0E40FE407EB
:2004200003944C000026640859009446490802460296224321D062460A431ED06200570DE4
:200440004A000E032303550D012402462C492405781B1B0B360B4018234326436146009056
:200460001C46501AB44103D30098401C009002E0921800985B41002803DA0020014605B080
:20048000F0BD0020012109050746864611E064461D46141BB54106D36546521BB341744684
:2004A00007430C43A646CD0740084908284392185B4105460D43EAD11046184313D0604609
:2004C000194650407140084306D06046101AB34106D20122002306E000220123DB0702E089
:2004E0000122D2435310009874460105381C6141029C039D0019694100F0A3F8BFE70000E1
:20050000FD0300004A0009030123090B1B0519430A4B10B5520D9A4202DA0020014610BD6C
:20052000064B34339A4203DC9A1A00F066F810BD034BD21800F051F810BD0000FF03000039
:20054000CDFBFFFF10B5002904DB0124E40740428C412146002B04DB1C460123DB0752423C
:20056000A341994200D1904210BD00001CB5094800900948019005460126009C05E0E3687A
:2005800007CC33430C3C98471034AC42F7D3FFF7CFFD0000505500007055000070B5044654
:2005A000002903D000202022012310E0002801D00020C043C046C0460DE02546D5408D4265
:2005C00005D30D469540641B1D46954040191546521E002DF1DC214670BD10B5202A04DBC4
:2005E0000146203A9140002010BD914020239C1A0346E3401943904010BD10B5202A04DB7F
:200600000846203AD040002110BD0B46D340D0402024A21A91400843194610BD10B5202A69
:2006200006DBCB170846203A1041C1170B4306E00B461341D0402024A21A914008431946C2
:2006400010BD10B5002B08DA0024401C614192185B411A4301D14008400010BDF0B51FB497
:2006600082B005460C0003D0084603F093FE02E003F090FE20300246009021462846FFF7F6
:20068000ACFF049B059A04460F4618431143084314D0184610431BD0009840210A1A1846DD
:2006A0000599FFF7AAFF05460E46009A05990498FFF793FF084305D0012004E020463946F8
:2006C00007B0F0BD0020C11705430E432C43374300990E986305401A7905E40A00220C435E
:2006E000FD0A0A3002D500200146E9E70105101969410C9C0D9D00196941FFF7A2FFDFE760
:20070000D2B201E00270401C491EFBD270470022F6E710B513460A4604461946FFF7F0FFC0
:20072000204610BD024670B54A40D30FDB0740002DD04A002AD0010E140E000212020919E1
:20074000400A520A8418E50104465443000A120A2E045043A4194219200CC543AA18120C79
:200760000125AD03521C521912047F39240400D0521C104301D44000491EC2B20C06C00978
:200780002018401C4008802A02D003E0002070BD40084000002900DA0020184370BD10B5D9
:2007A00000229623114600F022F810BDC20F410040020123400ADB05D207090EC0187F291E
:2007C00001DA00207047962903DC9623591AC84001E096398840002AF4D0404270470029CD
:2007E00004DA401C490001D140084000704770B40024050C05D11024000402D1002921D011
:200800001124050E01D100020834050F01D10001241D850F01D18000A41C002801DB40006E
:20082000641C002908D020252E1B0D46F540A14000D001212943084301061B1B000ADB1D58
:2008400002D5002070BC7047DB05181880180029F8DA401C4900F5D170BC40084000704745
:2008600080B582B01C481D4903F084FD02F0C4FC02F0CCF81A48016808221143016002F0CF
:2008800097F802F0CBF80146164803F073FD414800680090FFE7404800680121090708403B
:2008A000000F38B9FFE70098401E009008B9FFE701E0F0E7FFE701200190019880F3108831
:2008C00002F0D8F80648016802229143016002F06FFC02B080BDC0468B4F0000FCFF00001F
:2008E00000C00040284F000080B584B0264800680290264800680190254803F03BFD254844
:2009000000680390FFE724480068012109070840000F38B9FFE70398401E039008B9FFE78F
:2009200001E0F0E7FFE702F051FD02F033FE212003F0C0FA03F018F9242003F0BBFA12487E
:2009400001680322914301601F4800210160FFE71D48006810B9FFE730BFF9E702980A49CD
:200960000860019809490860242003F0C1FA212003F0BEFA02F036FD02F000FE074803F087
:20098000F9FC04B080BDC04610E000E004000740DC4E000008000020180007407B540000D0
:2009A00080B582B000F024FC0190019808B9FFE708E0019804490A6802430A60019800F077
:2009C00035F9FFE702B080BD3806002083B002900191002000900198006850B1FFE702982D
:2009E00000210160019800688000009908180090FFE70198406850B1FFE7009802994860C2
:200A000001984068C000009908180090FFE70198806858B1FFE7009802998860019880689A
:200A200048214143009840180090FFE70198C06858B1FFE700980299C8600198C06848212E
:200A40004143009840180090FFE70198006958B1FFE7009802990861019800694821414330
:200A6000009840180090FFE70198806950B1FFE700980299486101988069C00000990818D0
:200A80000090FFE70198406958B1FFE70098029988610198406948214143009840180090E4
:200AA000FFE703B07047000010B58CB00E9C0A9009910892079309985A49884203D3FFE709
:200AC00059480990FFE714200490FFE70498092800D2A0E009980499414306910E98012108
:200AE0004180FFE70E98408840F20041884200DD8CE006980E9949884143059107980599EE
:200B0000B0FBF1F005287BD8FFE707980599B0FBF1F25143401A002872D1FFE7079805999C
:200B2000B0FBF1F00E9908700A988069C005002858D5FFE7089818B9FFE709980890FFE709
:200B400008980999884215D1FFE70E984088202810DCFFE7049801900E9881780172099855
:200B60000899049A019B0E9C009400F063FA01200B9053E014200190FFE70198092830D3A8
:200B8000FFE708980199414303910E9801210172FFE70E98007A20281EDCFFE703980E9972
:200BA000097A41430291079802990E9A12784A4390420BD1FFE709980899049A019B0E9CE8
:200BC000009400F037FA01200B9027E0FFE70E98017A491C0172DCE7FFE70198401E01908D
:200BE000CBE70CE00E98002101720998049A0E9B00930B4600F01EFA01200B900EE0FFE7B9
:200C0000FFE70E984188491C41806BE7FFE70498401E04905AE700200B90FFE70B980CB052
:200C200010BDC04641420F0040420F0082B0DC4901910090009801990A6D02430A6502B036
:200C40007047C04680B584B0039002910192019800780004029909681C4A114040180399E9
:200C60008423C8500398029909681140401840F20021401800900098019909688900FFF708
:200C800046FD04B080BDC04680B584B0039002910192019800790004029949680B4A1140F0
:200CA000401803998823C8500398029949681140401840F2002140180090009801994968CF
:200CC000C900FFF724FD04B080BDC046FCFF000080B584B0039002910398C07800060028B2
:200CE00005D5FFE702985B210122425404E002985B2100224254FFE70398C078400600288C
:200D00000BD5FFE7039800680721490788430299086102980121017009E003980068C000EA
:200D2000400D02990861029800210170FFE70398C0788006002804D5FFE7029801210173E0
:200D400003E0029800210173FFE7039880798006002805D5FFE7029859210122425404E0E8
:200D60000298592100224254FFE703988079C006002805D5FFE702985A210122425404E0CD
:200D800002985A2100224254FFE7039840680F2109040840000C00F023F80299486100205D
:200DA0000190FFE701980299496988420CD2FFE7039801994018007A029A51180876FFE7D8
:200DC0000198401C0190EDE704B080BD80B582B00190009101980099FFF77AFF02B080BDAF
:200DE00082B0694608700878082804DCFFE7009801A9087039E068460078092804D1FFE73F
:200E000001A80C21017030E0684600780A2804D1FFE701A81021017027E0684600780B28BD
:200E200004D1FFE701A8142101701EE0684600780C2804D1FFE701A81821017015E068469F
:200E400000780D2804D1FFE701A8202101700CE0684600780E2804D1FFE701A83021017061
:200E600003E001A840210170FFE701A8007802B07047000085B0E448049099200390002043
:200E8000029001900090039858B1FFE7039804994A6D02434A650498C16D01221143C165CB
:200EA000FFE7029858B1FFE7029804998A6D02438A650498C16D02221143C165FFE701987A
:200EC0000499E0228B5803438B5000980499E4228B5803438B5005B07047C04682B06946DD
:200EE00008700878082804DCFFE7009801A9087039E0684600780C2804DCFFE701A809213E
:200F0000017030E068460078102804DCFFE701A80A21017027E068460078142804DCFFE7B8
:200F200001A80B2101701EE068460078182804DCFFE701A80C21017015E068460078202897
:200F400004DCFFE701A80D2101700CE068460078302804DCFFE701A80E21017003E001A87E
:200F60000F210170FFE701A8007802B07047000083B0A54A029201900091019828B1FFE730
:200F80000298006C01990870FFE7009830B1FFE70298006C009800210170FFE703B0704774
:200FA0000000024010B582B001906C460120207001987421FFF7ABFB01981D490160207842
:200FC00050B9FFE701980021C1600198262281540198272281540AE001985349C160019801
:200FE000262101224254019827214254FFE70198282100224254019840F2004101670198ED
:201000000C21816401980A21C16401980321C1650198816501980165019841650198016635
:20102000019908462C304831FFF7D0FC02B010BD20A1070010B586B0089C0590049103928C
:20104000029305983849884204D3FFE7FD20800501900BE005983549884203D3FFE735481A
:20106000019002E032480190FFE7FFE70398FFF796FB0199FFF756FBFFF798FB009008986A
:201080000021C1710098401E0899487103980099401A089988710398001D0521B0FBF1F01B
:2010A00008990871029890B3FFE704981E49884204D3FFE7FD20800501900BE004981B49AB
:2010C000884203D3FFE71B48019002E018480190FFE7FFE70298FFF762FB0199FFF722FB5D
:2010E000FFF764FB00900898002101730098401E0899887202980099401A0899C872029843
:20110000001D0521B0FBF1F00899487209E0089800210173089881720898C17208984172CE
:20112000FFE706B010BDC04640420F0000350C000000603FCDCC4C3F80B584B0039000208F
:2011400002902448019003982F49884205D1FFE7254801F00DF9029018E003981E498842AD
:2011600005D1FFE71F4801F003F902900DE003981A49884205D1FFE7194801F0F9F8029087
:2011800002E000200190FFE7FFE7FFE70198E8B1FFE7029818B9FFE71448019015E0029825
:2011A000012805D1FFE701F0DDF9400801900BE00298022804D1FFE701F0B0F8019002E034
:2011C00004480190FFE7FFE7FFE7FFE7019804B080BDC046006CDC0200400240008002407C
:2011E0000A3DC407893CA407083C8407001BB70082B005480190992000900198006D0099D4
:20120000084002B07047C0460000024010B586B005900491039202A80721017004990969C9
:20122000974A1140059BAC2419510599049B1B691340C91840F20022891801910599BC22AA
:20124000895840F20073994303781B021943059B9950007800900098042804D8FFE7009889
:20126000001D009004E0009880000A380090FFE701980099039A12694A439100FFF747FA6E
:2012800006B010BD80B588B007900691059204930020039002A8072101700698032801D36F
:2012A000FFE796E004988068412801D3FFE790E00498C068412801D3FFE78AE0069818B103
:2012C000FFE7012842D084E004988068C0B3FFE70598806804998968090408430399090696
:2012E00008430799A02288500798BC2140580722904302AA13781843079B58500798059940
:2013000089685F4B1940401840F2002140180190107800900098042804D8FFE70098001DF2
:20132000009004E0009880000A380090FFE701980099049A92684A439100FFF7E8F904E0C6
:201340000798A02100224250FFE742E00498C068C8B3FFE70598C0680499C9680904084361
:201360000399090608430799B02288500798BC2142587020824302A803781B011A43079B82
:201380005A500799059AD2683D4B1A40891840F2002289180191007800900098042804D878
:2013A000FFE70098001D009004E0009880000A380090FFE701980099049AD2684A43910026
:2013C000FFF7A5F904E00798B02100224250FFE7FFE708B080BDC046B0B586B005900491E5
:2013E000039202A807210170039A52699206920A049B9B69224C2340D218059BC0255A51FB
:20140000059A049B9B692340D21840F20023D2180192059AC823D2588A4301780A43059986
:20142000CA50007800900098042804D8FFE70098001D009004E0009880000A380090FFE70B
:2014400001980099039A52694A439100FFF75FF906B0B0BD84B003900291019200200090D6
:2014600000980006019989690904084302994969034A114040180399F022885004B07047B6
:20148000FCFF000010B586B0EA490591049001F07FFE03900598FFF74FFE0290039818B122
:2014A000FFE701F0C3FEFFE70598E249884207D1FFE7764800F004FE082001F07FFE20E018
:2014C00005986E49884207D1FFE76F4800F0F8FD092001F073FE13E005986949884207D125
:2014E000FFE7684800F0ECFD0A2001F067FE06E0039818B1FFE701F057FEFFE7BBE0FFE720
:20150000FFE70598012181610598816902221143816104982721405C38B1FFE7059881698D
:2015200040F2002211438161FFE704982621405C38B1FFE70598816940F2001211438161EC
:20154000FFE70598A021002242500598B02142500598049C2168E268029B18340094FFF710
:20156000A3FA30B1FFE705980499183100F082F9FFE70598049900F08BF80598C8210722D7
:2015800042500598BC214058059A53581843702318435050039818B1FFE701F005FEFFE750
:2015A0000498806C40B1FFE70598049A11462C314832FFF747FBFFE70498C06C40B1FFE7A6
:2015C0000598049A11462C314832FFF75DFBFFE70498C06D40B1FFE70598049A11462C31DF
:2015E0004832FFF7F9FEFFE70498806D40B1FFE70598049A11462C314832FFF707FEFFE7F4
:201600000498006D48B1FFE70598049B1A462C3248330021FFF736FEFFE70498406D48B1FA
:20162000FFE70598049B1A462C3248330121FFF729FEFFE70498006E40B1FFE70598049A0E
:2016400011462C314832FFF705FFFFE7059803210A4600F0F1F804982821405C58B1FFE722
:201660000598816980221143816105980169102211430161FFE706B010BDC046004002402B
:20168000008002400A3DC407893CA407083C840783B0029001910198C0681449884222D303
:2016A000FFE70298C06841F600710840010A684601700299896C47F60072914302781202C7
:2016C0001143029A91640299896C7F2291430078401C0143029881640298C1680122D205CC
:2016E0001143C160FFE703B07047C04641420F0010B58AB09849099108A908702D480790DE
:20170000002004900878012851D8FFE708A8007868B9FFE70998A43003900998A030029023
:201720000998A83001906846032101700CE00998B43003900998B03002900998B83001902B
:20174000684607210170FFE703980068400668B3FFE7039800688004800E05AC207009981B
:201760000299096889B24018217848224A43801840F200214018069006980799FFF726FB0C
:20178000207801990860039800688001002809D5FFE768460078012181400998016502200D
:2017A000049002E001200490FFE7FFE7FFE704980AB010BD7805002084B0D248029001A803
:2017C00001210170D049096800910078B0B1FFE702988169032291438161FFE702988069D4
:2017E000C00750B1FFE70098401E009020B9FFE70120C04303901AE0F0E715E002988169F5
:20180000012211438161FFE702988069C00750B9FFE70098401E009020B9FFE70120C043E7
:20182000039004E0F0E7FFE700200390FFE704B07047C04600000240B0B585B0049003AB4C
:20184000197002A90A70012001900090049A8020145803252C4014501A7812010978890047
:201860000A43019949000A4300990A4304990A5005B0B0BD82B0019000910198ED498842FF
:201880000AD1FFE7EF4801680F229143009A1278521E1143016025E00198E74988420BD125
:2018A000FFE7E8480168F0229143009A12781201103A1143016014E00198E04988420ED12E
:2018C000FFE7E048016840F600729143009A1278120240F20013D21A1143016000E038E0FF
:2018E000FFE7FFE7019881690222114381610098017949064288D205D20989184279C379CA
:20190000D218D2B21202891880797F2210400818124940180199C86101988069C0050028B5
:2019200017D5FFE70098017AC906C90A827A037BD218D206D20C8918C27A1207120E89184F
:20194000407A0F2210400818054940180199C860FFE702B07047C04600000240FFFEFEFD35
:20196000EFFEFEFF80B588B006900591049200200290012001906448006800900598202861
:2019800003D3FFE7002007908DE00698CC2140580599C840C00718B1FFE70020079082E00F
:2019A0000698C021415889B24018059948224A43801840F2002140180390049800780128D4
:2019C0000BD1FFE7049800690721490788430121890740180399086006E0049800694005BF
:2019E000C00803990860FFE70498007DFFF776FA00040399486004985921405C98B1FFE78D
:201A000003984168012252051143416004985A21405C38B1FFE703984168012212051143BF
:201A20004160FFE70CE00498007B012807D1FFE7039801680122520711430160FFE7FFE734
:201A400000200290FFE7029804994969C91C890888420DD2FFE704980299890040188069FF
:201A6000039A51188860FFE70298401C0290EAE7FFE70698406C18210840C008012809D0BE
:201A8000FFE70098401E009018B9FFE70020079009E0EEE70598012181400698D0228150CD
:201AA00001980790FFE7079808B080BD80B586B0B6490591002104910390029112480068DE
:201AC000019005980499039AFFF74CFF02900298012814D1FFE7FFE70598CC214058049998
:201AE000C840C00748B9FFE70198401E019018B9FFE70020029001E0EEE7FFE7FFE7029823
:201B000006B080BD000002400800002070B584B003AC0020207002AD287020462946FFF79E
:201B200027FA0C4801680C4802680C4E336820782C78019400900A4802F01CFC3068C000FF
:201B4000002804D5FFE7074802F014FCFFE704B070BDC046440002404000024050000240E6
:201B60003A4D0000784D000080B586B00490002003900121029101900498844988420BD112
:201B8000FFE7324800F0F4FB03902E4800680F210840401C029026E00498274988420BD177
:201BA000FFE7294800F0E4FB039026480068C0B20009401C029015E00498204988420DD18B
:201BC000FFE71F4800F0D4FB03901E48006840F600710840000A401C029002E0002005901A
:201BE00024E0FFE7FFE7039820B9FFE700F09CFB019015E00398012805D1FFE700F04AFDF7
:201C0000400801900BE00398022804D1FFE700F085FB019002E00E480190FFE7FFE7FFE704
:201C200001980299B0FBF1F00590FFE7059806B080BDC0460000024000400240008002404D
:201C40000A3DC40724020040893CA407083C8407006CDC0280B5A2B03D4802903D480190CF
:201C6000082001F0ABFA05A8FFF79CF93A480121017002980590002018B9FFE70198089022
:201C800002E000200890FFE705A8FFF7FBFB002038B9FFE73148016848F2000291430160E1
:201CA000FFE700F09FFF049000F05CFF03905D492B4802F05FFB002060B9FFE727480068E3
:201CC000020428492848002A00D40146274802F051FBFFE70499264802F04CFB03992548F8
:201CE00002F048FB0020A0B9FFE70299019A244802F040FB04980299884205D1FFE7039829
:201D00000199884204D0FFE71E4802F033FBFFE70DE00299184802F02DFB04980299884236
:201D200004D0FFE7154802F025FBFFE7FFE71648FEF77CFF154800210122FFF77DFDFFF7D9
:201D400099F802F0EDF8FFF737FD22B080BDC04620A1070080841E003C0600201800024036
:201D6000535200003B5500003F5500006252000001540000E75300004F540000274E00003F
:201D80001E540000D94D0000FFFFFF3F0000024010B584B003A908707848029002980078AC
:201DA00070B9FFE703A8017802985922845C1D4A1D4B04B91A4603691D4802F0DBFA0DE08A
:201DC00003A8017802985922845C164A164B04B91A460369154802F0CDFAFFE70298416960
:201DE000144802F0C7FA01A800210170FFE701A800780299496988420ED2FFE7029801A971
:201E000009784018017E0D4802F0B4FAFFE70198401C01A90870EAE7074802F0ABFA04B00D
:201E200010BDC04626550000375500003F4F0000654F000002550000925400001E550000D6
:201E40004A4800687F2108407047C046494800687F2108407047C04680B584B072B642482A
:201E6000016803910021016062B6FFF7E9FF0190FFF7ECFF0090039838B9FFE7019820B907
:201E8000FFE7009808B9FFE76CE003A800780007002806D4FFE7354800688001002804D558
:201EA000FFE7334802F066FAFFE703A800780921084203D1FFE70198D8B1FFE7FFE700202A
:201EC000FFF716FC0290029820B1FFE70020FFF75FFFFFE7FFE70299002029B1FFE7FFF766
:201EE000AFFF411E8841FFE7C0070028E7D1FFE7FFE703A800780006002806D4FFE71D483D
:201F000000688001002804D5FFE71B4802F032FAFFE703A800789021084203D1FFE700981A
:201F2000D8B1FFE7FFE70120FFF7E2FB0290029820B1FFE70120FFF72BFFFFE7FFE70299CD
:201F4000002029B1FFE7FFF781FF411E8841FFE7C0070028E7D1FFE7FFE708486021FEF7E4
:201F6000D6FBFFE704B080BD38060020A4000240A5530000B4000240C653000078050020D1
:201F800010B588B007AB01241C70444C069405AC2070049103A80270187860B1FFE74048B5
:201FA000007840B9FFE70499434802F0E3F9434802F0E0F96FE0049806990861059806994F
:201FC000087006980021017307A801784A1E9141069A5923D15401784A1E9141069A5A23E3
:201FE000D154007848B9FFE703A80078092804D3FFE703A808210170FFE703A8007806995F
:20200000486102A800210170FFE702A800780699496988420ED2FFE702A8007825490978E1
:202020004118069A10180176FFE70298401C02A90870EAE705A8007830B9FFE7069801693C
:20204000194802F097F905E006980169154802F091F9FFE701A800210170FFE701A80078AF
:20206000092810D8FFE70698FFF720FD012804D1FFE70F4802F07EF90DE0FFE70198401C44
:2020800001A90870EAE706980169084802F072F9FFF73CFDFFE708B010BDC046D8050020FB
:2020A0003C060020D8540000AE540000114D0000B95000003E06002005510000724E0000AF
:2020C00084B0039008200290042001900020009003981F2102460A4001219140800F8000AB
:2020E0006A461058024A83580B43835004B070470402004010B590B00F900E9100200790D5
:202100000E98734988420BD8FFE70E987149884206D3FFE701200A900E9840000E9011E0B1
:202120000E986D4988420BD8FFE70E986B49884206D3FFE703200A900E9880000E9000E06C
:20214000A8E0FFE7DF48016801221204114301600F9870B9FFE785490A68012002430A60CD
:2021600000F006FC00200990D7480D9002200C900EE07E480168042421430160102000F010
:20218000F7FB0120C0040990D0480D900C94FFE70D98CD49884203D8FFE70020089003E0B3
:2021A0000120C0050890FFE70020C143039101900290FFE70C98212850D8FFE70D980C99B5
:2021C000B0FBF1F0069006984749884241D3FFE70698464988423CD8FFE702200B90FFE757
:2021E0000B984349884232D8FFE706980B994143059105983F49884224D3FFE705983E49AA
:2022000088421FD8FFE705980E99884204D9FFE705980E99401A03E00E980599401AFFE741
:2022200004900498039988420BD2FFE7049803900C9801900B980290039808B9FFE707E083
:20224000FFE7FFE7FFE70B98401C0B90C8E7FFE7FFE7FFE70C98401C0C90ABE70898099961
:2022600008430A99890308430199490240F20042891A08430299891E0843DF4908600D9890
:202280000A99491C019A4A43B0FBF2F0029941430791FFE7079880B9FFE70F9830B9FFE7B0
:2022A000D548104901600A48079005E0D2480C49016007480790FFE7FFE7079820B1FFE7A1
:2022C000042000F055FBFFE7079810B010BDC0460044950801E1F50500E1F50580F0FA027E
:2022E000164088002E400000016A1800FF23F4000102000000C2EB0B0065CD1D81B000902E
:2023000000981A490A6802430A6001B07047C04680B501F015F84548006880BD80B501F0A8
:202320000FF84248006880BD81B010480068C00718B1FFE7D648009002E000200090FFE7DA
:20234000009801B07047C04681B0084800688007002804D5FFE748F20000009002E0002054
:202360000090FFE7009801B07047C0460002004087B006900020059004900C21039108219F
:20238000029104210191009006980001400FA8B1FFE70698800E0C21084069460858094934
:2023A000401804900498006806990A01520FC901C90E8A401040C8400590FFE7059807B090
:2023C0007047C0461002004080B582B000F0B8FF1548006807210840012805D1FFE713486B
:2023E00000684008019003E0104800680190FFE7019802B080BDC04680B582B000F0A0FFFE
:202400000948006870210840102805D1FFE7074800684008019003E0044800680190FFE798
:20242000019802B080BDC046340200400800002088B000200690BC480090BC4800680590ED
:2024400005A880780521084203D0FFE70020079035E005A880780007002803D5FFE7B54853
:20246000049002E0B2480490FFE705A880788007002803D5FFE70498079020E005A80088F8
:20248000800B69460818007801900598AA490840801C0390059843F600610840400A801C6D
:2024A000029004988008039941430298019A4243B1FBF2F08000069006980790FFE707982E
:2024C00008B0704740020040001BB70000366E0188B0002006909448009094480068059061
:2024E00005A880780521084203D0FFE70020079035E005A880780007002803D5FFE78D48DB
:20250000049002E08A480490FFE705A880788007002803D5FFE70498079020E005A800887F
:20252000800B6946081800780190059882490840801C0390059843F600610840400A801CF4
:20254000029004988008039941430298019A4243B1FBF2F08000069006980790FFE707988D
:2025600008B0704788B0002006906F4800906F480068059005A880780521084203D0FFE735
:202580000020079035E005A880780007002803D5FFE76848049002E065480490FFE705A8E3
:2025A00080788007002803D5FFE70498079020E005A80088800B694608180078019005984E
:2025C0005D490840801C0390059843F600610840400A801C02900498800803994143029809
:2025E000019A4243B1FBF2F08000069006980790FFE7079808B070474002004088B0002014
:2026000006904948009049480068059005A880780521084203D0FFE70020079035E005A82E
:2026200080780007002803D5FFE74248049002E03F480490FFE705A880788007002803D588
:20264000FFE70498079020E005A80088800B6946081800780190059837490840801C039035
:20266000059843F600610840400A801C029004988008039941430298019A4243B1FBF2F0D7
:202680008000069006980790FFE7079808B07047001BB70088B000200690234800902348D5
:2026A0000068059005A880780521084203D0FFE70020079035E005A880780007002803D5D7
:2026C000FFE71C48049002E019480490FFE705A880788007002803D5FFE70498079020E01A
:2026E00005A80088800B6946081800780190059811490840801C0390059843F60061084055
:20270000400A801C029004988008039941430298019A4243B1FBF2F080000690069807906A
:20272000FFE7079808B070470102020440020040001BB70000366E01FF01000080B582B03C
:20274000274801909948006810210840009001982449884203D3FFE721480190FFE7019822
:202760002149884203D8FFE720480190FFE754480168042211430160102000F0F9F87B48D1
:202780000168072211430160774801680F229143016086480068C00738B1FFE701984100BE
:2027A0000020FFF7A7FC01900CE0019841000120C004FFF79FFC01907C480068102108405D
:2027C0000090FFE7022000F013F8009830B9FFE73B480168042291430160FFE702B080BDE3
:2027E00000A24A0401A24A043F787D0140787D0110B584B00390002002906C480168102002
:20280000014001912E490A6804231A430A6000F0AFF85648026807210A430260294A1368AA
:202820007024A3431360504A13680F24A343029C2343136002688A4303990A43026000F094
:202840007FFD9F4800682049884208D8FFE71D4801682022114350229143016025E09848C4
:2028600000681A49884208D8FFE7164801683022114340229143016016E091480068144965
:20288000884208D8FFE70F4801684022114330229143016007E00B48016850221143202200
:2028A00091430160FFE7FFE7FFE7019830B9FFE703480168042291430160FFE704B010BD53
:2028C0000002004018C000404081BA01C0209002800275038BB00A900991002008900790F8
:2028E00006900C21059108210491042103910290019100900A98800A0006B8B1FFE70AA821
:2029000040880C21084069460858174940180690069800680A998A0AD2B28905C90E8A402D
:2029200090430899084306990860FFE70A980001400FB8B1FFE70A98800E0C21084002A95A
:2029400008580A4940180790079800680A990A01520FC901C90E8A409043099908430799F4
:202960000860FFE70BB07047200200401002004083B001905248006840080090FFE70B480C
:2029800000680199084088420AD0FFE70098411E0091002803DCFFE70020029003E0EEE784
:2029A00001200290FFE703B07047C0465002004084B0212003902D4802900020019016485E
:2029C000016808221143016003983E49086002983D4908600198264908603C480121016026
:2029E000BFF36F8F36480068C0080090FFE737480068C00740B1FFE70098401E009010B92F
:202A0000FFE7FFE7FEE7F2E704B0704702480168012211430160704700C0004083B01348F1
:202A2000019028480021016001982749086027480121016022480068C0080090FFE7234835
:202A40000068C00758B1FFE70098411E0091002804DCFFE70020C043029004E0EFE7044827
:202A600000680290FFE7029803B07047FCFF000008C0004083B00020019011480068C00802
:202A8000009010482E21016001980F4908600F4801210160FFE70D48006858B1FFE7009841
:202AA000411E0091002804DCFFE70020C043029003E0F0E700200290FFE703B07047C046C1
:202AC000080000200CC0004004C0004010C0004080B50C4801680F221206914301600A48EC
:202AE00044F2000100F018F8084801684FF20002914301600648002101600648082100F037
:202B00000BF880BD5C00004040410040400000408C4800408040004084B003900291012009
:202B2000019000200090FFE700980F2818D8FFE702980099C840C00768B1FFE703980068C5
:202B40000099490003228A409043019A8A40104303990860FFE7FFE70098401C0090E3E7FB
:202B600004B0704780B588B03B48069000200590049003A9087002A9087001A90870069814
:202B8000FEF7F2FF0490049818B9FFE70020079024E00698C0681F2109040840000C411CE9
:202BA00003A801700699C96841F600721140090A02AA11700699C968C9B2090901AB19705D
:202BC00004990078B1FBF0F011781A788918C91CB0FBF1F0059005980790FFE7079808B021
:202BE00080BDC04680B588B01B48069000200590049003A9087002A9087001A908700698DC
:202C0000FEF7B2FF0490049818B9FFE7002007901EE00698C069000C401C03A90870069881
:202C2000C069000A02AA10700698C0697F23184001AB187004980978B0FBF1F011781A787C
:202C40008918C91CB0FBF1F0059005980790FFE7079808B080BDC0460000024080B584B06E
:202C600003A90870DA480178490802AA11700078012108404142484101A908701078022855
:202C800005D8FFE7002003A9085608B9FFE74BE001A8007820B3FFE702A800784000C04930
:202CA000085A002103AA51560A224A43801800900098632803DCFFE764200090FFE70098E2
:202CC00040F2F511884204DBFFE740F2F4100090FFE7009802A909784900B14A50521CE0DB
:202CE00002A80078AF49085C002103AA5156401800900098002803D5FFE700200090FFE7E5
:202D00000098652803DBFFE764200090FFE7009802A90978A34A5054FFE702A8007800F083
:202D200005F800F001F9FFE704B080BD80B582B001A908700878032801D3FFE70BE001A853
:202D400002789648805C5100954B595A954B9A5C00F004F8FFE702B080BDC046B0B58AB01F
:202D6000AD4B099308900791069202A80121018001A84E4901800998984206D1FFE74C481D
:202D8000006810210840059005E049480068102108400590FFE7059820B9FFE7FFF72EFC6F
:202DA00004900FE000F0CCFA09989B49884204D1FFE7FFF709FB049003E0FFF705FB0490D5
:202DC000FFE7FFE702A801210180FFE702A800883849884218DCFFE704980799B0FBF1F0D5
:202DE00002A90988B0FBF1F0039003983249884201D3FFE703E0039801A9088005E00298AF
:202E0000401C02A90880E1E7FFE7049902AA138801A804885C43B1FBF4F103910299491E96
:202E2000118089B2099A089B5B089B00D218516109994968089A5300032425469D4094405B
:202E40002543A943099A51600199491E018089B2099A089B5B08DB00D21811630699008804
:202E6000401C48436421B0FBF1F00999089A9200891808650998B0214258089843000F4830
:202E800004469C40A24302249C402243099B5A500999B4228958089B5B009840814301205E
:202EA00098400143099881500AB0B0BDFFFF00001C020040FE0F00000100010003000300EC
:202EC00082B055490191009000980199D8228B5803438B5002B0704710B582B000200090C0
:202EE00001A90870FFE701A80078022812D8FFE701AC2078FFF71AFF20782849085C0121CC
:202F00008140009808430090FFE70198401C01A90870E8E70098FFF7D3FF009800F05AF877
:202F200000F002F802B010BD10B584B0284908784008421C02A802700978CB071449154A6D
:202F400003B1114601910178019A134801F012FA03A800210170FFE703A80078022814D80C
:202F6000FFE703A80078411C0C4A125C43000C4CE35A0C4C205C00900B4801F0FBF9FFE7CD
:202F80000398401C03A90870E6E704B010BDC046435500004855000074520000CC4C0000AF
:202FA0000C00002012000020F54C000080B582B001A908700878062801D3FFE705E0019803
:202FC00003490870FFF7B0FFFFE702B080BDC0463D06002083B010490291019000200090EA
:202FE000FFE70098052814D8FFE701980099C840C00748B1FFE70098012188438140029894
:20300000026A0A430262FFE7FFE70098401C0090E7E703B07047C04600C0054080B584B097
:2030200003900291019203A800784007002803D5FFE70198009002E002980090FFE706481E
:2030400001F098F9FFE70098006808B1FFE7FAE7039804B080BDC046CF4C000083B0029016
:2030600001910092002003B07047000081B0009000980449086001B07047C0460148006875
:203080007047C0460400004070B500F0B5F836480168F022914301600420FFF72FF91025C8
:2030A0002846FFF765FC01242046FFF727F92046FFF75EFCFFF742FB0720FFF799FB2B4E97
:2030C0003046FEF7FDFF03213046FFF703FC284E3046FEF7F5FF304647F20001FFF7FAFB8A
:2030E000244E3046FEF7ECFF30462946FFF7F2FB21480168214D29406204891801600168C6
:203100001F4E31406205891801601E48016831400B2212058918016001684FF20002914362
:203120004BF20002891801600168B02211434022914301602106144C2046FFF7CBFB204619
:20314000FEF7BEFF11480168294009221304C91801600168314012058918016000F0F0F843
:2031600000F01EF870BDC04640410040103D00660300C05E000040B23C000040FFFFF0FF26
:20318000FFFF0FFF38000040083C8407400000403448006801210840414248417047C04645
:2031A00030480021016070472E48002101607047104801680122114301607047B0B581B0C9
:2031C000009000990A4A0B461340012004469C40090E084BCD582543CD5000990C46144034
:2031E000A040090ECA588243CA5001B0B0BDC046FFFFFF000800004081B019480090FFE766
:2032000018485921016016210160882101600098401E009008B9FFE706E0FFE71148006817
:203220000028EDD0FFE7FFE701B0704781B00C480090FFE70B48592101601621016088210B
:2032400001600098401E009008B9FFE706E0FFE7044800680028EDD0FFE7FFE701B0704747
:20326000006CDC020001004080B582B00190019800F002F802B080BD81B000906846007872
:203280000A280CD1FFE7FFE70B4800680002002801D5FFE7F8E709480D210160FFE7FFE727
:2032A000054800680002002801D5FFE7F8E700980249086001B0704718000740000007403B
:2032C00080B582B000900098401E000E18B1FFE7012001900DE00098401E0749086000F007
:2032E00039FE0648002101600548072202600191FFE7019802B080BD14E000E018E000E043
:2033000010E000E080B501F025F880BD80B582B040F2E830019001F015F8214800680199B2
:20332000B0FBF1F0FFF7CCFF28B1FFE7034801F021F8FFE7FEE702B080BDC0469554000083
:2033400080B584B012480068072108400290FFF76FF8104908600298022806D0FFE7029808
:2033600080000D490858039004E00A48006840080390FFE7094800680F210840401C019007
:2033800003980199B0FBF1F00549086004B080BD10020040040000208C4C00002002004015
:2033A00008000020704780B500F094F800F01AF8212000F09DFD00F0E1F880BD81B07B48B6
:2033C000009000980121816001B0704781B07748009000980168012252079143016001B077
:2033E0007047C04681B07148009000980168012252071143016001B07047C04681B06B4812
:203400000090009880680121084001B07047C046B0B58CB00B902B4801A93CC83CC13CC866
:203420003CC10B982849884208D1FFE72848006840F200710840000A0A9023E00B985B4941
:20344000884208D1FFE72248006847F200010840000B0A9015E00B981C49884208D1FFE764
:203460001B480068072109040840000C0A9007E017480068072109050840000D0A90FFE7A5
:20348000FFE7FFE70A98022813D1FFE70B980E49884205D0FFE70B984449884204D1FFE796
:2034A000FEF792FF099003E0FEF7A6FF0990FFE705E00A98800001A908580990FFE70998C0
:2034C0000CB0B0BDAC4C000000000540001005401402004080B586B0344805900120C00678
:2034E000049040F2E83003900598FFF791FF0290002001900090039802994908884203D938
:20350000FFE70220019028E002981949884206D3FFE7072000900298C008029017E0029849
:203520001449884206D3FFE7032000900298800802900BE002981049884206D3FFE70120B6
:203540000090029840080290FFE7FFE7FFE702980399B0FBF1F00190FFE7049800990843FC
:203560000599086001980599486006B080BDC0460190D0030148E8010124F40081B00B483A
:20358000009000980168012292071143016001B07047C04681B00548009000980168012289
:2035A00092079143016001B07047C0460001054080B5FFF723FF012807D1FFE7FFF7FEFE63
:2035C00000F0D0FE00F0D2F9FFE780BD81B0009005480178103101700448016801225140AD
:2035E000016001B07047C0463E0600207849004081B0009001B0704781B0009001B0704745
:2036000010B51D490A2000F049F81C4908600868002809D4FFE7194C206800F071F921682C
:20362000174800F0A7FEFFE71649642000F036F8154908600868002809D4FFE7124C2068A8
:2036400000F05EF92168114800F094FEFFE7104940F2E83000F022F80E49086008680028D5
:2036600009D4FFE70B4C206800F04AF921680A4800F080FEFFE710BDF93500001800002013
:20368000F84F0000F13500001C00002008500000CD350000200000201850000080B584B016
:2036A00003AA108002910020019010880299019A00F002F804B080BD86B004AB18800391CF
:2036C000029200200190FFE701980F2826D8FFE701980001C8490818009000988068C0B9B7
:2036E000FFE704980099088000980021418000980171009801224271009881710098C171E1
:2037000003980099886002980099C8600198059008E0FFE70198401C0190D5E70020C043D1
:203720000590FFE7059806B07047C04680B584B003907248029001A800210170C8430090E0
:2037400072B6C0460298007802994978884217D0FFE7029801788900401840680090029870
:203760000178491C017002980078102804D3FFE7029800210170FFE701A801210170FFE7BF
:2037800062B6C04601A8007820B1FFE7009803990860FFE701A8007804B080BD80B500F07A
:2037A00035F800F001F880BD80B584B000200390FFE703980F2826D8FFE7039800018E498B
:2037C0000818029002984079C0B9FFE702980079A0B1FFE70298806880B1FFE7029800F018
:2037E000ABF850B1FFE70298806801900298C0680090019900988847FFE7FFE7FFE703988C
:20380000401C0390D5E704B080BDC04680B584B0FFE703A8FFF78AFFE0B1FFE70398002853
:2038200017D4FFE703980F2813DCFFE7039800017149081802900298806801900298C06833
:203840000090019820B1FFE7019900988847FFE7FFE7DEE704B080BD83B002902748019040
:2038600001984078401C694608700878102804D3FFE7684600210170FFE768460078019919
:203880000978884201D1FFE709E0029801994A78920089184860009801994870FFE703B0E8
:2038A0007047C04683B015480090009800210170009841700291FFE702980F281CD8FFE794
:2038C000029800014C4908180190019800210180019841800198017101980122427101985F
:2038E00081710198C171019881600198C160FFE70298401C0290DFE703B0704734040020E1
:2039000082B001900198102801D3FFE712E0019800013949081800900098806808B9FFE774
:2039200008E000980021418000988171009801210171FFE702B0704780B582B0019068467A
:203940000021017072B6C0460198807938B1FFE7019800218171684601210170FFE762B65B
:20396000C0466846007802B080BD000080B582B000200190FFE701980F283AD8FFE70198CD
:2039800000011D49081800900098007960B3FFE70098806840B3FFE7009840881749884223
:2039A00005D0FFE700984188491C4180FFE70098408800990988884215DBFFE700980021FC
:2039C00041800098407948B9FFE70098807920B9FFE7009801218171FFE703E00198FFF79A
:2039E0003BFFFFE7FFE7FFE7FFE70198401C0190C1E702B080BDC04678040020FFFF000038
:203A000080B50F48006841F20011084201D0FFE700E00AE0FFE70B4800684004002803D4BF
:203A2000FFE700F04BF9F6E7FFE7064800687121084203D0FFE700F045F8FFE780BDC04608
:203A40001C0007401800074080B51748FFF7B6FB00F0A2F800F094F8242000F049FAFEF7F7
:203A600057FC0146114800F085FCFEF757FC01460F4800F07FFCFEF757FC01460D4800F0BD
:203A800079FCFEF761FC01460B4800F073FCFEF79BFC0146094800F06DFCFEF7ADFC014604
:203AA000074800F067FC80BD10000004A05000005A50000072500000895000002850000066
:203AC0004150000082B0F748019042F2004000906846C078C00728B1FFE70198012109041B
:203AE000C161FFE7684640784007002804D5FFE7019878218161FFE768464078000700289B
:203B000006D5FFE701984169012211434161FFE7684640788006002804D5FFE701981049DD
:203B20008161FFE7684640784006002808D5FFE7019801214907416501981F214164FFE711
:203B4000684640780006002807D5FFE701988021C161019803498163FFE702B07047C04695
:203B6000010000012F03000082B0CE48019011200090009801994A6882434A6002B07047BB
:203B800082B0C848019011200090009801994A6802434A6002B0704780B58AB0C148099044
:203BA000E1214902089107A900220A7006A90A703C49059148F20001049103923A49029114
:203BC00001920999814204D0FFE7384881420FD01CE0374800680321084007A9087035481D
:203BE000006840F600710840000A06A908700EE02F4800680C210840800807A908702D48D6
:203C0000006880B2000B06A9087000E047E009980021016309980321C16009988168264ACB
:203C20001140816007A80078012804D1FFE7FEF74FFC0390FFE7089888B3FFE707A80078A6
:203C4000800002A9085806A90978491CB0FBF1F008994A088018B0FBF1F0801E019001A8C9
:203C60004088A0B1FFE707A80078800002A9085806A90978491CB0FBF1F00899CA0080186F
:203C8000B0FBF1F00009801E0999486206E0019803210907084309994862FFE7FFE70AB0D5
:203CA00080BDC046006CDC02001BB7000010074018020040200200400FFFF0FF10B582B09E
:203CC00001A8002101707749096801700078802804DBFFE7764800F04DFBE0E001AC217826
:203CE000714800F047FB20783138492800D9D5E0810001A251188F4600F092B800F094B801
:203D000000F096B800F098B800F09AB800F09CB800F0A7B800F0ABB800F0AFB800F0BEB840
:203D200000F0BCB800F0BAB800F0B8B800F0B6B800F0B4B800F0B2B800F08AB800F0AEB8C1
:203D400000F0ACB800F088B800F09DB800F0A6B800F0A4B800F0A2B800F0A0B800F09EB828
:203D600000F09CB800F09AB800F098B800F096B800F094B800F092B800F090B800F08EB85B
:203D800000F08CB800F08AB800F088B800F086B800F084B800F07DB800F080B800F079B8C5
:203DA00000F07CB800F07AB800F078B800F076B800F074B800F072B800F04AB800F06EB841
:203DC00000F06CB800F048B800F05DB800F066B800F064B800F062B800F060B800F05EB8A8
:203DE00000F05CB800F05AB800F058B800F056B800F054B800F052B800F050B800F04EB8DB
:203E000000F04CB800F04AB800F048B800F046B800F044B800F03DB800F040B800F039B844
:203E20000020FFF7C3F839E00120FFF7BFF835E00220FFF7BBF831E00320FFF7B7F82DE004
:203E40000420FFF7B3F829E00520FFF7AFF825E00120FEF703FF21E00020C043FEF7FEFEA0
:203E60001CE01248017804221143017016E00F48017808221143017010E00C4801781022E4
:203E8000114301700AE00948017802221143017004E0FFF7B1F9FFF78BF9FFE7FFE702B044
:203EA00010BDC04600000740EB4F000030040020CD50000081B0694608700020085600283F
:203EC00011D4FFE70020694608561F2102460A400121914040098000044A8150BFF34F8FAD
:203EE000BFF36F8FFFE701B07047C04680E100E081B0694608700020085600280DD4FFE7B8
:203F00000020694608561F2102460A4001219140400980000E4A8150FFE701B07047C04669
:203F200081B06846302101700021405600280DD4FFE70020694608561F2102460A40012119
:203F4000914040098000024A8150FFE701B0704700E100E070B582B001A8FF2101700321E6
:203F6000009100214056002816D4FFE7002301ACE2560320C043024017495258E3569C07AB
:203F8000E40EFF25A540AA43009DAD01EDB2A5402A4303405A501AE001AC23780F2003405C
:203FA000083B0321C9430B400A4A9B5800256457A507ED0EFF26AE40B343009EB601F6B26F
:203FC000AE4033430440083C0C40A350FFE702B070BDC0461CED00E000E400E080B582B0D7
:203FE000FFF74CF8009078480168784A114301600099774800F0BEF968460078C00720B19A
:20400000FFE7744800F0B6F9FFE7684600788007002804D5FFE7704800F0ACF9FFE7684604
:2040200000784007002804D5FFE76C4800F0A2F9FFE7684600780007002804D5FFE76848F1
:2040400000F098F9FFE768460078C006002804D5FFE7644800F08EF9FFE768460078800671
:20406000002804D5FFE7604800F084F9FFE7684600784006002804D5FFE75C4800F07AF904
:20408000FFE7684600780006002804D5FFE7584800F070F9FFE768464078C00720B1FFE764
:2040A000544800F067F9FFE768460078C00750B1FFE70120FEF7DAFF574800F05BF901A8DF
:2040C000002101707DE068460078800700280AD5FFE70220FEF7CAFF4E4800F04BF901A804
:2040E000002101706DE068460078400700280AD5FFE70420FEF7BAFF454800F03BF901A85B
:20410000002101705DE068460078000700280AD5FFE70820FEF7AAFF3C4800F02BF901A8AF
:20412000002101704DE068460078C00600280AD5FFE71020FEF79AFF334800F01BF901A801
:20414000002101703DE068460078800600280AD5FFE72020FEF78AFF2A4800F00BF901A84A
:20416000002101702DE068460078000600280AD5FFE78020FEF77AFF214800F0FBF801A884
:20418000002101701DE068464078C00758B1FFE740F20010FEF76AFF184800F0EBF801A8F8
:2041A000002101700DE0FFE7FFE7FFE7FFE7FFE7FFE7FFE7104800F0DDF801A800210170DE
:2041C000FFE702B080BDC04604000040FF010000C44E000059510000A55100007F5100003E
:2041E0006C51000046510000DE4C0000CB4D000092510000BF510000DF5000004353000071
:204200008B53000026530000D8520000F25200000C53000016520000144F000080B582B048
:20422000019000910198FFF71FF8019802B080BD80B5FFF7B3FAFDF70FFE1F4800788007EF
:20424000C00F40B1FFE71C480178FD2211400170FCF706FBFFE7184800784007C00F40B141
:20426000FFE715480178FB2211400170FCF73CFBFFE7114800780007C00F58B1FFE70E48A7
:204280000178F7221140017000200C491022FDF777FEFFE708480078C006C00F58B1FFE788
:2042A00005480178EF2211400170012004492022FDF766FEFFE780BD3004002033030000B0
:2042C0004444000080B582B000200190FEF7DCFEFEF7FEFBFFF7B8FBFFF765F8FFF77EFE13
:2042E000FFF714F8FDF7B6FCFEF7F6FD0E4800F041F80E4800F03EF80D4800F03BF80D4866
:2043000000F038F80C4800F035F80C4800F032F80B4800F02FF8FFF7C5FAFFF771F9FFE739
:20432000FFF786FFFCE7C046B44E0000AB4F0000D951000031520000B25200008C5200008E
:204340006453000081B00020009000980449086001B0704702480168491C01607047C046DA
:204360002804002002480168491C01607047C0462C0400200FB410B503A9044B044A029800
:2043800000F0E8F810BC08BC04B018471D420000000000202021020C01D010211046020A78
:2043A00001D010460839020901D01046091F820801D01046891E420801D0881E7047081A49
:2043C000704702E008C8121F08C1002AFAD170477047002001E001C1121F002AFBD1704776
:2043E000F0B51FB486B00998089A030D0021024314D05148514A1818504305141198012890
:2044000010981AD0281A401C00264D4F4D49009601910490002812DA444211E011980124FF
:2044200049A3012801D11098C1430698119A84600360C26041600BB0F0BD4042E4E7044697
:20444000210500203F4A001C51410391029012E0E00707D032463B4601990098FBF772FF7B
:204460000191009032463B4610461946FBF76AFF06460F466410002CEAD10498039B0028B3
:20448000029A0999089806DAFBF75CFF019B009AFBF758FF05E0FBF7BDFF019B009AFBF7D7
:2044A000B9FF04460E460022284BFCF74BF803D80020C043014607E00022254B2046314640
:2044C000FBF78EFEFCF71EF8102409E0002C0ADB0A220023FBF754FE079B30321A55641E9F
:2044E00002460A43F2D11122641C079B121B1C19119B012B03D0012308430ED10AE008437F
:2045000004D0112010900020119077E71098151A6D1E0BE01098824202DD00236D1C03E0B0
:20452000824201DA00236D1E002BEED0069811998260C16030C07EE701FCFFFF104D00004D
:20454000000014400000F03F300000000000F0430000E03FFFB597B00646002518E22528A3
:2045600077D100242746FD49049400E00443761C32780120203A90400842F7D130782A28CA
:204580000ED00222307801463039092916D804990A235943303940181443761C0490F1E725
:2045A000189802C804911890002904DA0120400304434842049002200443761C30782E287B
:2045C00014D1042004437078761C2A2809D11898761C80C8189009E00A214F43303FC719BE
:2045E000761C3078014630390929F5D930786C2810D006DC4C281AD068280ED06A2817D18D
:2046000004E0742813D07A2812D110E00120400504430CE00121090501E0032109050C4397
:204620007178814203D1012000052418761C761C3078119066280BD013DC58287DD009DC21
:2046400000287BD04528F6D04628F4D047281AD1A5E118E0632835D0642870D0652812D1DE
:204660009DE170286CD008DC6728F1D069287BD06E280DD06F2806D1BAE073282ED0752827
:2046800071D0782859D01A9A199990476D1C7EE16002400F022809D003280DD00428189853
:2046A00001680DD00D60001D189070E11898EA1701680D604A60F6E7189801680D80F2E7A4
:2046C0000D70F0E718986A4601781172001D18900020507202A80090012005E0189802C8C9
:2046E000189000200091C04361070DD5002101E00199491C0191B94212DA8142F8DB009A6A
:20470000515C0029F4D10BE0002101E00199491C01918142FADB019A0099895C0029F5D1E0
:20472000019904981A9B471A21463846199A00F097FA0199401945180BE04FE02CE113E0AA
:204740004EE0009800990078491C00911A9A199990470198401E0190401CF2D121463846C3
:204760001A9B199A10E137E00A200021009001916002410F022907D0189A01CA1892C217A8
:204780009446032908D00AE01898C01DC108C90005C91891944607E000B2C2179446042968
:2047A00002D140B2C1178C4600226146944506DA0A460021404291418C462D2102E021051B
:2047C00004D52B216A461173012103E0E10701D02021F7E7029155E00A200AE0102008E0AF
:2047E000102000900021042004430191082703E008200021019100906002410F022907D0AA
:20480000189A01CA189200229446032908D008E01898C01DC108C90005C91891944603E036
:2048200080B2042900D1C0B200210291210729D51199702906D0009A1021019B4A401A4395
:2048400005D00EE040216A461173012108E06146014306D030216A4611731199517302211F
:204860000291009A0821019B4A401A430AD16146014301D1610705D530216A4611730121DE
:204880007F1E02911199582904D035A10E910DA90D910DE037A1F9E76146019B009AFBF7AC
:2048A0006FFC0E9B8C469B5C0D9A521E0D92137061460143F0D10D9805A9081A20300190E0
:2048C000600703D501200004844300E001270198874201DD381A00E0002001990090411890
:2048E000029809180498401A0490E00306D421461A9B199A049800F0B3F94519002706E044
:2049000003A81A9AC05D199990476D1C7F1C02988742F5DBE0030CD521461A9B199A04980C
:2049200000F09EF9451904E01A9A3020199990476D1C0099481E00900029F5DC08E00D9882
:204940000D990078491C0D911A9A199990476D1C0199481E01900029F1DC63E10928010073
:20496000303132333435363738396162636465660000000030313233343536373839414245
:20498000434445460000000000F05AF94519761C3078002800D0E2E528461BB0F0BD60071E
:2049A00000D406271898C01DC108C90048680A680831C30FDB071891190001D09CA108E010
:2049C000210501D59BA104E0E10701D09AA100E09AA1430011985B08109165280CD006DC71
:2049E000452809D046281DD0472841D141E0662818D067283CD13CE00021112F01DB1120D8
:204A000000E0781C0191009008A911A8FFF7E8FC139905910021119A15927F1C129801972A
:204A2000009150E00120C00703900120019008A9009711A8FFF7D4FC139A149905920022AE
:204A4000119B009212981593059A0192002901D0104602E0791C40180190381A01D5019823
:204A600004E04042401E0090781C0190C01B029043E0012F00DA01270021112F01DD11208B
:204A800000E038460191009008A911A8FFF7A8FC13990591119A002112981592009101970A
:204AA00021070CD40599B94201DB019900E00191012904DD159A491E515C302906D0B84276
:204AC00001DA011D05DA0121029115E00199491EEDE7002805DC0099411800910199091A36
:204AE00003E0019A411C914200DD01910099401A401C02900120C0070390200706D40299A1
:204B00000198814202DB0020C043029000206946C87707AF012103980337C907884224D05E
:204B2000022011902B201290039800280CDA404203902D20129007E00A210398FBF72EFD4E
:204B400030317F1E039039701199481E11900029F2DC03980028EFD1791E1298087030788F
:204B6000202108404530BF1E387006A8C01BC01D039010980078002800D00120019941188D
:204B80000298C0170918039809180498401A401E0490E00306D421461A9B199A049800F0C7
:204BA0005FF8451910980078002803D01A9A199990476D1CE00324D521461A9B199A049818
:204BC00000F04EF845191CE00098002807DB00990598884203DD1598405C199901E0199935
:204BE00030201A9A904700986D1C401C00900298401E0290002804D11A9A2E2019999047BB
:204C00006D1C0199481E01900029DDDC05E038781A9A7F1C199990476D1C0399481E03900D
:204C20000029F4DC21461A9B199A0498ACE600002D0000002B000000200000000000000006
:204C4000F8B5044600251E461746880404D405E039462020B0476D1C641EF9D52846F8BD7C
:204C6000FFB50446002581B01E46C80301D5302700E02027880404D505E038460399B04702
:204C80006D1C641EF9D5284605B0F0BD001BB70000800000004495080096000000000000A2
:204CA0000000000000000000006CDC02001BB7000080000000000000000000000000000058
:204CC0000096000000000000006CDC020002042020486172644661756C74210A0A003529A0
:204CE00053797374656D20526573657420466C6167200D0A0050574D2575286368257529F7
:204D00003A20257520487A2C2025752025250D0A004661696C656420746F207472616E73C6
:204D20006D6974206D657373616765202849443A307825303858290D0A0043414E2073746F
:204D4000617475733A205053523D307825303858204543523D3078253038582049523D3091
:204D6000782530385820285445433D2575205245433D2575290D0A0048696E743A20504548
:204D8000443D312C20636865636B20464420646174612070686173652073657474696E6764
:204DA00073202849534F2F4E6F6E2D49534F206D6F64652C2064617461206269747261748A
:204DC000652C20425253292E0D0A00362952657365727665642E0D0A005761726E696E6713
:204DE0003A2043414E2046442074696D696E67206D69736D617463682C20636865636B2055
:204E000043414E20636C6F636B20736F75726365202F206269747261746520736574746940
:204E20006E67732E0D0A005761726E696E673A2043414E2074696D696E67206D69736D6104
:204E40007463682C20636865636B2043414E20636C6F636B20736F75726365202F206269C0
:204E600074726174652073657474696E67732E0D0A005365742043414E5F4150505F454EEC
:204E800041424C455F46445F4D4F44453D3120616E6420736574205043414E20746F2043BC
:204EA000414E204644206D6F64652066697273742E0D0A0055415254206B6579206D617064
:204EC0003A0D0A00526573657420536F75726365203C3078253038583E0D0A00456E746523
:204EE00072207374616E646279202843505520736C656570292E2057616B652D757020731E
:204F00006F757263653A2043414E205258204952510D0A00706F776572206F6E2066726FC9
:204F20006D20504F520D0A00436865636B73756D206E6F773A203078253038580D0A0052E5
:204F400078204649464F2575205B25735D20457874656E646564204944203D203078253013
:204F600038580D0A005278204649464F2575205B25735D205374616E646172642049442054
:204F80003D203078253038580D0A0065726173652041505020636865636B73756D20617497
:204FA0002030782530386C580D0A00312F323A2050574D3120465245512F445554592C20A1
:204FC000332F343A2050574D3220465245512F445554592C20352F363A2050574D3320462B
:204FE0005245512F445554590D0A007072657373203A2025630D0A007461736B3120696426
:20500000203D2025640D0A007461736B32206964203D2025640D0A007461736B33206964B1
:20502000203D2025640D0A00434C4B5F47657450434C4B3046726571203A202538640D0AC0
:2050400000434C4B5F47657450434C4B3146726571203A202538640D0A00434C4B5F4765D7
:205060007448434C4B46726571203A202538640D0A00434C4B5F47657448585446726571DF
:20508000203A202538640D0A00434C4B5F4765744C585446726571203A202538640D0A008D
:2050A0000D0A434C4B5F47657443505546726571203A202538640D0A0074782072657175EF
:2050C000657374207175657565640D0A00696E76616C696420636F6D6D616E640D0A007057
:2050E0006F776572206F6E2066726F6D20756E68616E646C6520726573657420736F757287
:2051000063650D0A00426C6F636B6564204644205458202849443A307825303858293A2067
:20512000636F6E74726F6C6C657220697320696E20436C6173736963616C2043414E206D0A
:205140006F64650D0A003429424F4420526573657420466C61670D0A003029504F5220523E
:205160006573657420466C61670D0A0033294C565220526573657420466C61670D0A003277
:205180002957445420526573657420466C61670D0A00372943505520526573657420466CE6
:2051A00061670D0A0031294E52455345542050696E20526573657420466C61670D0A003892
:2051C00029435055204C6F636B757020526573657420466C61670D0A00412F613A20696E5A
:2051E0006372656D656E742073656C6563746564206974656D2C20442F643A20646563726E
:20520000656D656E742073656C6563746564206974656D0D0A00706F776572206F6E206676
:20522000726F6D206E52455345542070696E0D0A00373A207374616E64627920756E74692B
:205240006C2043414E2052582077616B652D75700D0A0043414E206D6F64653A2025730D9F
:205260000A0046442070726F746F636F6C3A2025730D0A0050574D204354524C203D2047F2
:20528000726F757025752025730D0A00393A2073656E642043414E206D6573736167653A71
:2052A00030783434342C2033322062797465730D0A00383A2073656E642043414E206D657B
:2052C00073736167653A30783333332C2031362062797465730D0A00706F776572206F6E05
:2052E0002066726F6D20424F442052657365740D0A00706F776572206F6E2066726F6D208D
:205300004C56522052657365740D0A00706F776572206F6E2066726F6D205744542052657B
:205320007365740D0A00706F776572206F6E2066726F6D2053797374656D20526573657444
:205340000D0A00706F776572206F6E2066726F6D20435055204C6F636B75702052657365F3
:20536000740D0A00452F653A20696E76616C69646174652041505020636865636B73756DDA
:20538000202B2072657365740D0A00706F776572206F6E2066726F6D2043505520726573F8
:2053A00065740D0A005761726E696E673A205258204649464F30206D657373616765206C1E
:2053C0006F73740D0A005761726E696E673A205258204649464F31206D65737361676520EC
:2053E0006C6F73740D0A00446174612062617564207261746528627073293A2025750D0A31
:20540000004E6F6D696E616C2062617564207261746528627073293A2025750D0A00504302
:20542000414E2073657474696E673A2043414E204644206D6F64652C204E6F6D696E616C0A
:205440003D25752C20446174613D25750D0A005043414E2073657474696E673A20436C6117
:2054600073736963616C2043414E206D6F64652C20426175643D25750D0A0057616B652D8B
:2054800075702062792043414E2061637469766974790D0A005365742073797374656D2085
:2054A0007469636B206572726F7221210A0053656E6420746F207472616E736D6974206DFF
:2054C00065737361676520307825303878202831312D626974290A0053656E6420746F2091
:2054E0007472616E736D6974206D65737361676520307825303878202832392D6269742920
:205500000A004D6573736167652044617461282530327520627974657329203A200030786C
:2055200025303258200043414E20464400436C6173736963616C2043414E004E6F6E2D49CE
:20554000534F0046524551004455545900000000705500000000002024000000C243000027
:20556000945500002800002018060000D2430000000000000044950800449508640064003D
:205580006400323232000000FFFFFFFFFFFFFFFFFFFFFFFFFFFFFFFFFFFFFFFFFFFFFFFF29
:2055A000FFFFFFFFFFFFFFFFFFFFFFFFFFFFFFFFFFFFFFFFFFFFFFFFFFFFFFFFFFFFFFFF0B
:2055C000FFFFFFFFFFFFFFFFFFFFFFFFFFFFFFFFFFFFFFFFFFFFFFFFFFFFFFFFFFFFFFFFEB
:2055E000FFFFFFFFFFFFFFFFFFFFFFFFFFFFFFFFFFFFFFFFFFFFFFFFFFFFFFFFFFFFFFFFCB
:20560000FFFFFFFFFFFFFFFFFFFFFFFFFFFFFFFFFFFFFFFFFFFFFFFFFFFFFFFFFFFFFFFFAA
:20FFE000FFFFFFFFFFFFFFFFFFFFFFFFFFFFFFFFFFFFFFFFFFFFFFFFFFFFFFFF1CA9367DA5
:00000001FF
