:020000040010EA
:10000000700400203D011000450110004701100060
:1000100000000000000000000000000000000000E0
:100020000000000000000000000000005601100069
:100030000000000000000000580110005A011000EC
:100040005C0110005C0110005C0110005C011000FC
:100050005C0110005C0110005C0110005C011000EC
:100060005C0110005C0110005C0110005C011000DC
:100070005C0110005C0110005C0110005C011000CC
:100080005C0110005C0110005C0110005C011000BC
:100090005C0110005C0110005C0110005C011000AC
:1000A0005C0110005C0110005C0110005C0110009C
:1000B0005C0110005C0110005C0110005C0110008C
:1000C0005C0110005C0110005C0110005C0110007C
:1000D0005C0110005C0110005C0110005C0110006C
:1000E0005C0110005C0110005C0110005C0110005C
:1000F0005C0110005C0110005C0110005C0110004C
:10010000D90310005C0110005C0110005C011000BC
:100110005C0110005C0110005C0110005C0110002B
:100120005C0110005C0110000348854600F028F8CF
:10013000004800471D071000700400200C4880474D
:100140000C480047FEE77046EFF30881EFF30982A1
:10015000094B98470047FEE7FEE7FEE7FEE7C0468B
:10016000ABBE064B744698472047C0467046F047E2
:10017000E50610002901100041061000430610009A
:100180001CB5094800900948019005460126009CCD
:1001900005E0E36807CC33430C3C98471034AC428D
:1001A000F7D3FFF7C5FF0000D40E1000F40E1000C7
:1001B000D2B201E00270401C491EFBD270470022FF
:1001C000F6E710B513460A4604461946FFF7F0FF56
:1001D000204610BD024670B54A40D30FDB074000F1
:1001E0002DD04A002AD0010E140E00021202091965
:1001F000400A520A8418E50104465443000A120AD0
:100200002E045043A4194219200CC543AA18120CFD
:100210000125AD03521C521912047F39240400D069
:10022000521C104301D44000491EC2B20C06C00942
:100230002018401C4008802A02D003E0002070BD36
:1002400040084000002900DA0020184370BD10B5B6
:1002500000229623114600F022F810BDC20F410083
:1002600040020123400ADB05D207090EC0187F298E
:1002700001DA00207047962903DC9623591AC840FA
:1002800001E096398840002AF4D0404270470029A6
:1002900004DA401C490001D140084000704770B4A6
:1002A0000024050C05D11024000402D1002921D01E
:1002B0001124050E01D100020834050F01D10001FF
:1002C000241D850F01D18000A41C002801DB400003
:1002D000641C002908D020252E1B0D46F540A140A6
:1002E00000D001212943084301061B1B000ADB1D26
:1002F00002D5002070BC7047DB0518188018002953
:10030000F8DA401C4900F5D170BC40084000704745
:10031000F8B50026204C3046A04705460420A047EB
:100320000746A248A047690F33D01C498D4230D8F8
:1003300000909E4CE01C87422BD8F80729D00098EB
:10034000401C022825D30026F543154F3446974814
:10035000864219D2304600F05DF92146042911D0B9
:10036000CA000346D340DAB26A400023072B06D8FE
:100370005508D20700D07D402A465B1CF6E7491C91
:100380001546EBE7361DE2E700984540681C4642FB
:1003900046413046F8BDC04615061000FF5F0020FC
:1003A0002083B8ED012181F31088CD480268A3486D
:1003B0002E23836000230360C160D108491CC268FA
:1003C00012B1491E0029FADC0248016802220A43E0
:1003D0000260FEE708000040F0B52A480168C9073E
:1003E0004ED00168284A0A430260416D490644D054
:1003F000416D8904890E48224A43036D9BB29B18C4
:10040000224C1E59F50F5F27214AD555B500ED0F37
:1004100015740125AD07354003D007277F07BE437C
:1004200001E0F600760D56611B195C68A602F60F16
:100430005D27D655E602F60F5E27D655AD0F15712E
:100440002403240F092C07D3093C052C03D8E4B25C
:1004500010A52C5D00E04024946108330025A542DE
:1004600005D25C5D561934776D1C9469F7E7816598
:10047000416D890101D50821016005480121017004
:10048000F0BDC046500002400100040000020240DE
:10049000080000200C10141820300000F0B585B0C2
:1004A0000493164602910A9D0024EC71111D052249
:1004B0000392B1FBF2F129711F49884201D8204F04
:1004C00000E01E4FFD211F4A9042019100D98F0587
:1004D0003046FFF7BCFE01463846FFF77BFEFFF7CC
:1004E000BDFE311AA971401E6871049F2046214645
:1004F0002246D7B102981049884201D8104E00E038
:100500000E4E01990F4A904200D98E053846FFF7EA
:100510009EFE01463046FFF75DFEFFF79FFE391A4B
:10052000401E3A1D039BB2FBF3F2E972A8722C73D2
:100530006A7205B0F0BDC046FF340C00CDCC4C3F14
:100540000000603F3F420F00B0B5402B02D8049D31
:10055000402D00D9B0BD144C70B1FDB1280410433A
:100560002061E06970210143E161482169430F483E
:1005700010400F4A80180EE09BB118040843206019
:10058000E06907220243E26148225A4307480840D3
:10059000074940181146FFF712FEB0BD0020206148
:1005A000B0BD00202060B0BDA0000240FCFF0000F4
:1005B00000020240B0B5820AD3B20F4A5BB1840593
:1005C000E40EA340040C0C2525400CA46459141916
:1005D00025699D43256103015B0F0BD0C401E40E27
:1005E000A340800E0C24044006A0005984589C436C
:1005F0000C438450B0BDC046100200400000000013
:1006000004000000000000000400000008000000DA
:100610000C000000094900238B6008600120C860BD
:100620002F480068C008421CD843CB68DB0703D0C2
:10063000521E012AF9DA70474868704704C000402A
:1006400070477047B0B51948026807211140026B26
:1006500005231B041A4201D0002316E0130301D521
:10066000144B00E0124B94030FD4134C1440A41C01
:100670009B0863431404A40F104D2C5D9204D20E0A
:10068000921C6243B3FBF2F29300022901D1590894
:1006900002E089000AA2515800690F220240501C52
:1006A000B1FBF0F00E490860B0BDC046100200403A
:1006B000001BB70000366E01FF010000CE0E1000D7
:1006C000001BB70000800000004495080096000061
:1006D000000000000000000000000000006CDC02D0
:1006E000000000207047000002498A691202FCD411
:1006F0000860704700000740B0B570B104460D2592
:1007000020780A2801D020B907E02846FFF7ECFF3F
:100710002078FFF7E9FF641CF2E7B0BDB2B015AB7B
:10072000203315A859301390C54AC64859251626B6
:100730008824156016601460401C02D211680029DC
:10074000F7D0C1480168F02291430160BF4F38687B
:10075000042101433960BE480068396DC90602D4DE
:10076000401EFAD11FE0386801210E91084338601D
:10077000B7480068396DC90702D1401EFAD112E0AE
:100780003869072290433861B248011D386C0D91D9
:1007900008433864B0483864AD480068396D49078B
:1007A00002D4401EFAD1FEE705920893386A0F2161
:1007B0000491884338623869022106910843052173
:1007C000149188433861FFF73DFF0E980106A34856
:1007D000FFF7F0FE786840F2001108437860B868CF
:1007E0000D990843B8609E4803210791FFF7E2FE88
:1007F0009C4F796B9C4801400E98420411928918D5
:1008000079637A6B99490A404305D2187A637A680A
:100810000D9B1A437A6002047B6893437B60944A81
:1008200007981060934B9361BA6B8F480240092080
:100830000304D218BA63BA6B0A4000051018129765
:10084000B8638D490868284308600E9800058B49F5
:1008500008608BA0FFF750FFFFF75AFD002865D115
:100860008CA0FFF749FF7F49086840F2001210434F
:10087000086008688E4F3840086015A8001D6C217C
:10088000FFF79DFC07992C910A2028900C202790B7
:1008900040F2004031902B912D912A91299140F204
:1008A0000010583023908020019022903020219019
:1008B000002018907F49159140F23021249140F298
:1008C0003022F0322692D83125915D490A680E997E
:1008D0000A400392C90410915C4909698901890F92
:1008E000754A2ED0022923D0012926D15749096CF7
:1008F000149B1B04194223D11098014200D06F4A67
:10090000119801421BD10804800F6D4B185C8B04B9
:10091000DB0E9B1C434340F20010FF300840801C5C
:1009200091084143B1FBF3F0800009E065A077E254
:10093000FFF788FE4648026803E0684A01E0104677
:10094000420803983E493F4B38B90D600E600C6079
:100950005B1C02D208680028F7D03C49486840F286
:100960000013184348603F49086818430860086846
:10097000384008605A4E0E98F060F06806990843B7
:10098000F0605848002101601491016156481599A2
:100990000B91814200D30B900898077815A8017E2F
:1009A0000A91183002901420189B40F20041092847
:1009B00000D253E20B9C099044430F940E9C481CB8
:1009C000844234D0119420460F9C6043B2FBF0F572
:1009D000052D29D86843824226D1F06840F20011E3
:1009E000084200D120E20B9903B119461198202842
:1009F00003D80B98814200D123E20C916943142360
:100A0000092B0DD31F464F430124212C05D020462E
:100A1000784390426CD0641CF7E75B1E2127EFE718
:100A20000A950C9B40F20041119C641CC7E715A875
:100A30002E4C4483089807700998401EB7E7C046BB
:100A400000010040009423FD4041004000020040AE
:100A500000000020FCFF00002E400000083C84073E
:100A6000103D006608000040FFFFF0FFFFFF0FFF92
:100A70000C0007409F01003000C0004008ED00E07E
:100A80005B626F6F745D626F6F74207374617274F8
:100A90000A0000005B626F6F745D696E76616C695D
:100AA000642C7374617920626F6F740A0000000017
:100AB000FFFEFFFF20A10700001BB70000366E01FC
:100AC000CE0E10005B626F6F745D76616C69642C92
:100AD000717569636B206A756D700A00006CDC02C9
:100AE0000C000240A000024040420F000104000040
:100AF0000898047015A80576119941830298009012
:100B00000B980C99099AFFF7C9FCD74B596A0498BE
:100B1000814315A8027E521E0A435A62F168069A62
:100B20001143F160817F7F220A401C99491E4906CA
:100B3000438BDB05DB09C9188918427FC07F801809
:100B4000C0B200020918CD48091810313161F168AE
:100B500040F20012114213D0089B5978049A1140B8
:100B60001A78D206D20A1018DA781207120E8018F4
:100B7000401899781A795118C906C90C4018306084
:100B8000BF481899814214D33068F16B47F6007260
:100B90009143C004C00E02025118F163F16B7F2231
:100BA00091434018401CF0630E98C0053168014322
:100BB0003160B14A05989062D069D16901437020D3
:100BC0000843D061039810B91498A6490860279982
:100BD00059B12098A64A10400A06120A1218B267A4
:100BE000A84A80188900FFF7EAFA289959B1219894
:100BF0009F4A10400A06120A1218F267A14A80188A
:100C0000C900FFF7DCFA2C9888B1269A98490A4067
:100C10008106890A8918984B1962996A059C2143B3
:100C200099624821414397481018FFF7C8FA2B985A
:100C300040F2007168B1249A8D4B1A408E4CE260EC
:100C4000E3690B43E361482141438E481018FFF7E5
:100C5000B6FA2A9C299D35B1239A22990094002046
:100C60002B46FFF771FC34B1239A2299009401209E
:100C70002B46FFF769FC2D9830B125997C4A11402D
:100C8000000408187C490865706F07990840706770
:100C90003F2070670898007A38B1F06801990843DE
:100CA000F0607068102101437160B06F70490840B6
:100CB0007549744A8150706F079A10407067726767
:100CC000B06C72490143B164306D0E9908433065D0
:100CD0006949086C0864486C48646D480D99016066
:100CE00062480068F1689143F160F168C90701D07A
:100CF000401EFAD1674FB1200406129808381290AE
:100D000008200F90182551204006119038780028AF
:100D1000FCD014983870F869A04202D1129800688B
:100D200006E0F869119988422BD1386AFFF772FC06
:100D300038621398149941700170F8691B90386AF1
:100D40001C904A4800684C49C96AC907DED14A4923
:100D5000096A89B24B4A554B8B508918109A4A60E0
:100D60000F9A102A05D015AB9B181B698B50121DCA
:100D7000F7E70146B26B2A40082A0CD0491EF9D188
:100D8000C4E7AB200006F96981420ED1FFF7C0FA33
:100D90000028BBD043E00E99374A11633649C96A2F
:100DA000C907B3D1401EF9D1B0E7F869F8690D99C8
:100DB000884231D240F20070FF30F96901422D4B78
:100DC00016D1F8692221D96058600E981861274819
:100DD00000684008401C1969C90702D0401E00285D
:100DE000F9DC1868400603D51868402101431960F2
:100DF000F869396A2122DA60586099600E981861A2
:100E00001A480068C008401C1969C90702D0401E72
:100E10000028F9DCF86989E71498C04388E71EA028
:100E2000FFF76AFCFFF7BEFA08981499017015A83D
:100E30000576119A4283029800900B98099A0B4606
:100E400061E608981199017015A80576418302980A
:100E500000900B980146099A134654E615A80A9982
:100E600001768DE6000100400002004000000020F5
:100E7000FCFF000000C00040A0000240EFFEFEFFAB
:100E800041420F0000020240FF07878C010004006E
:100E900004E100E0080000205B626F6F745D766122
:100EA0006C69642C6A756D700A0000000000101EE9
:100EB00002E008C8121F08C1002AFAD17047704723
:100EC000002001E001C1121F002AFBD1704701027E
:100ED00002040000F40E10000000002004000000D6
:100EE000B00E1000F80E100008000020680400008A
:080EF000C00E1000004495083B
:040000050010013DA9
:00000001FF
